:100000000C9434000C9449000C9449000C94490061
:100010000C9449000C9449000C9449000C9449003C
:100020000C9449000C9449000C9449000C9449002C
:100030000C9449000C9449000C9449000C9449001C
:100040000C9449000C9449000C9449000C9449000C
:100050000C9449000C9449000C9449000C944900FC
:100060000C9449000C94490011241FBECFEFD4E03A
:10007000DEBFCDBF11E0A0E0B1E0E6E2F1E002C0FA
:1000800005900D92A031B107D9F70E9482000C941F
:1000900091000C9400001092C50089E18093C40087
:1000A000E0ECF0E080818270808388E18093C10081
:1000B00086E08093C2000895E0ECF0E0908195FF27
:1000C000FDCF8093C6000895E0ECF0E080818823A6
:1000D000ECF78091C60008950F931F93CF93FC0116
:1000E0008081882359F08F01C0E00E945C00CF5FBF
:1000F000F801EC0FF11D80818111F7CFCF911F9195
:100100000F9108958FEF84B90E944B0080E091E039
:100110000E946C000E946400C82F0E945C00C5B958
:06012000F9CFF894FFCFB7
:1001260048656C6C6F20576F726C64210D0A000075
:00000001FF
